2025-12-05T06:00:00.538527 client INFO c.c.i.c.u.FixMSFLogger BLPCGAG parse: 8=FIX.4.2^A9=0288^A35=D^A49=BLPCGAP^A56=CGA6^A34=2199^A52=20251205-06:00:00.431^A37=8387486748^A40=1^A100=TO^A11=5DTX000802XB001^A55=KEY^A54=2^A59=0^A10=093^A
2025-12-05T06:00:00.526592 client INFO c.c.i.c.u.FixMSFLogger BLPCGAG parse: 8=FIX.4.2^A9=0368^A35=D^A49=BLPCGAP^A56=CGA6^A34=2197^A52=20251205-06:00:00.399^A37=4979475984^A40=2^A100=TO^A11=5DTX00070WZ001^A55=VOD^A54=1^A59=0^A10=071^A
2025-12-05T05:54:25.998983 client INFO c.c.i.c.u.FixMSFLogger BLPCGAG parse: 8=FIX.4.2^A9=0296^A35=G^A49=BLPCGAG^A56=CGA6^A34=2180^A52=20251205-05:54:25^A37=8387486748^A11=5DTX000802XB001^A41=5DTX000802XB001^A38=2000^A10=119^A
2025-12-05T05:49:17.027211 client INFO c.c.i.c.u.FixMSFLogger BLPCGAG parse: 8=FIX.4.2^A9=0253^A35=G^A49=BLPCGAG^A56=CGA6^A34=1678^A52=20251205-05:49:16^A37=4979475984^A11=APL11724^A125=FA3B^A38=1000^A55=AAPL^A54=1^A10=108^A
